:100000000C9434000C9446000C9446000C9446006A
:100010000C9446000C9446000C9446000C94460048
:100020000C9446000C9446000C9446000C94460038
:100030000C9446000C9446000C9456000C94460018
:100040000C9446000C9446000C9446000C94460018
:100050000C9446000C9446000C9446000C94460008
:100060000C9446000C94460011241FBECFEFD8E03C
:10007000DEBFCDBF21E0A0E0B1E001C01D92A13004
:10008000B207E1F70E9470000C9483000C9400000A
:100090001092000187BD16BC82E080936E008091B3
:1000A00000018823E1F310926E0008951F920F92D1
:1000B0000FB60F9211248F9381E0809300018F91EE
:1000C0000F900FBE0F901F901895259A08952D9AA6
:1000D00008952D98089585B190E2892785B90895EE
:1000E000CF93DF9300D0CDB7DEB70E9465001A82B0
:1000F00019820E94670089819A8101969A83898377
:0A01000089819A81F6CFF894FFCFB1
:00000001FF
