:100000000C9434000C9446000C9446000C9446006A
:100010000C9446000C9446000C9446000C94460048
:100020000C9446000C9446000C9446000C94460038
:100030000C9446000C9446000C946A000C94460004
:100040000C9479000C9446000C9446000C944600E5
:100050000C9446000C9446000C9446000C94460008
:100060000C9446000C94460011241FBECFEFD8E03C
:10007000DEBFCDBF21E0A0E0B1E001C01D92A13004
:10008000B207E1F70E9456000C9483000C94000024
:100090001092000187BD16BC82E080936E008091B3
:1000A00000018823E1F310926E00089580E284B984
:1000B0008FEF87BD14BC85E085BD83E085BB1092C2
:1000C0006E0085BB7894C0E2C5B98FE00E944800FD
:1000D00015B8FACF1F920F920FB60F9211248F937B
:1000E00081E0809300018F910F900FBE0F901F90C1
:1000F00018951F920F920FB60F9211240F900FBEFA
:0A0100000F901F901895F894FFCFA0
:00000001FF
