:100000000C9434000C943E000C943E000C943E0082
:100010000C943E000C943E000C943E000C943E0068
:100020000C943E000C943E000C943E000C943E0058
:100030000C949D000C943E000C943E000C943E00E9
:100040000C943E000C943E000C943E000C943E0038
:100050000C943E000C943E000C943E000C943E0028
:100060000C943E000C943E0011241FBECFEFD8E04C
:10007000DEBFCDBF0E944B000C94F3010C94000036
:10008000259A08952D9A08952D98089585B190E2A6
:10009000892785B908950E94400068EE73E080E0EA
:1000A00090E00E945E00F9CFE1E8F0E0808181609D
:1000B000808310928500109284000895CF93DF937F
:1000C000CDB7DEB728970FB6F894DEBF0FBECDBF11
:1000D0006D837E838F8398870E9454006D817E811B
:1000E0008F81988528EE33E040E050E00E94AF0019
:1000F000CA01B9010E9465012DEB37E346E856E3DA
:100100000E94D1000E94390169837A838B839C838A
:10011000EAE8F0E02081318189819A81AB81BC815C
:10012000282B392B3183208328960FB6F894DEBF15
:100130000FBECDBFDF91CF9108951F920F920FB6E2
:100140000F9211248F939F9385B190E2892785B9EF
:100150009F918F910F900FBE0F901F901895A1E265
:100160001A2EAA1BBB1BFD010DC0AA1FBB1FEE1F31
:10017000FF1FA217B307E407F50720F0A21BB30B7C
:10018000E40BF50B661F771F881F991F1A9469F7F8
:1001900060957095809590959B01AC01BD01CF0154
:1001A00008950CD0E6C0DED040F0D5D030F021F478
:1001B0005F3F19F0C7C0511110C1CAC0EBD098F30E
:1001C0009923C9F35523B1F3951B550BBB27AA27D8
:1001D00062177307840738F09F5F5F4F220F331F4A
:1001E000441FAA1FA9F333D00E2E3AF0E0E830D016
:1001F00091505040E695001CCAF729D0FE2F27D019
:10020000660F771F881FBB1F261737074807AB07E6
:10021000B0E809F0BB0B802DBF01FF2793585F4F5B
:100220002AF09E3F510568F08DC0D7C05F3FECF3C8
:10023000983EDCF3869577956795B795F7959F5F20
:10024000C9F7880F911D9695879597F90895E1E074
:10025000660F771F881FBB1F621773078407BA07D3
:1002600020F0621B730B840BBA0BEE1F88F7E0952E
:10027000089598D088F09F5790F0B92F9927B751DB
:10028000A0F0D1F0660F771F881F991F1AF0BA955A
:10029000C9F712C0B13081F09FD0B1E008959CC081
:1002A000672F782F8827B85F39F0B93FCCF3869550
:1002B00077956795B395D9F73EF4909580957095AD
:1002C00061957F4F8F4F9F4F0895E89409C097FB2A
:1002D0003EF490958095709561957F4F8F4F9F4F1D
:1002E0009923A9F0F92F96E9BB279395F695879561
:1002F00077956795B795F111F8CFFAF4BB0F11F424
:1003000060FF1BC06F5F7F4F8F4F9F4F16C08823CA
:1003100011F096E911C0772321F09EE8872F762F00
:1003200005C0662371F096E8862F70E060E02AF041
:100330009A95660F771F881FDAF7880F969587952D
:1003400097F9089597F99F6780E870E060E0089555
:100350009FEF80EC089500240A94161617061806DD
:100360000906089500240A941216130614060506B9
:100370000895092E0394000C11F4882352F0BB0F4A
:1003800040F4BF2B11F460FF04C06F5F7F4F8F4FAD
:100390009F4F089557FD9058440F551F59F05F3FE8
:1003A00071F04795880F97FB991F61F09F3F79F097
:1003B00087950895121613061406551FF2CF469519
:1003C000F1DF08C0161617061806991FF1CF86959B
:1003D0007105610508940895E894BB27662777277F
:0A03E000CB0197F90895F894FFCFC0
:00000001FF
