:100000000C9434000C9446000C9446000C9446006A
:100010000C9446000C9446000C9446000C94460048
:100020000C9446000C9446000C9446000C94460038
:100030000C9446000C9446000C9446000C94460028
:100040000C9446000C9446000C9477000C944600E7
:100050000C9446000C9446000C9446000C94460008
:100060000C9446000C94460011241FBECFEFD8E03C
:10007000DEBFCDBF21E0A0E0B1E001C01D92A23003
:10008000B207E1F70E9453000C948A000C94000020
:10009000249A08952C9A08952C98089585B190E19A
:1000A000892785B9089587E690E00E9465007894D5
:1000B000809100018823E1F3809101010E9470008A
:1000C0001092000110920101F3CF9093C50080932C
:1000D000C40088E98093C1008EE08093C200089537
:1000E0009091C00095FFFCCF8093C60008951F92A9
:1000F0000F920FB60F9211248F9381E0809300012D
:100100008091C600809301018F910F900FBE0F90D8
:080110001F901895F894FFCF31
:00000001FF
