:100000000C9434000C9446000C9446000C9446006A
:100010000C9446000C9446000C9446000C94460048
:100020000C9446000C9446000C9446000C94460038
:100030000C9446000C9446000C9446000C945B0013
:100040000C947F000C9446000C94FE000C94460027
:100050000C9446000C9446000C9446000C94460008
:100060000C9446000C94460011241FBECFEFD8E03C
:10007000DEBFCDBF21E0A0E0B1E001C01D92A33002
:10008000B207E1F70E94B5000C943B010C9400000C
:10009000249A08952C9A08952C98089585B190E19A
:1000A000892785B9089583E085BD16BC85E08093D6
:1000B0006E0085BB08951F920F920FB60F92112408
:1000C0002F933F934F935F936F937F938F939F9360
:1000D000AF93BF93EF93FF930E944A00FF91EF917C
:1000E000BF91AF919F918F917F916F915F914F9150
:1000F0003F912F910F900FBE0F901F9018951F9258
:100100000F920FB60F9211242F933F934F935F934B
:100110006F937F938F939F93AF93BF93EF93FF93CF
:100120000E944C00FF91EF91BF91AF919F918F91F1
:100130007F916F915F914F913F912F910F900FBEE3
:100140000F901F901895853608F084E664E670E0FD
:100150009B01281B31094FEF429FC001439F900D27
:1001600011240E94130168BD089578940E945300E1
:1001700087E690E00E94EC000E94480088E20E941E
:10018000A30010920101809100018823E1F3C09146
:100190000101C13311F484E60FC0C23311F484E1CC
:1001A0000BC0C33311F48EE107C0C53311F482E3F1
:1001B00003C0C13719F480E00E94A30080910201BE
:1001C000813029F48C2F0E94F700109202011092C6
:1001D000010110920001D7CF9093C5008093C40015
:1001E00088E98093C1008EE08093C20008959091C9
:1001F000C00095FFFCCF8093C60008951F920F9218
:100200000FB60F9211248F9381E0809300018093A9
:1002100002018091C600809301018F910F900FBE63
:100220000F901F90189597FB072E16F4009407D097
:1002300077FD09D00E94270107FC05D03EF4909578
:1002400081959F4F0895709561957F4F0895AA1BE2
:10025000BB1B51E107C0AA1FBB1FA617B70710F0B1
:10026000A61BB70B881F991F5A95A9F780959095E3
:0A027000BC01CD010895F894FFCF02
:00000001FF
