:100000000C9434000C9446000C9446000C9446006A
:100010000C9446000C9446000C9446000C94460048
:100020000C9446000C9446000C9446000C94460038
:100030000C9446000C9446000C9446000C94460028
:100040000C9446000C9446000C9424010C94460039
:100050000C9446000C9446000C9446000C94460008
:100060000C9446000C94460011241FBECFEFD8E03C
:10007000DEBFCDBF21E0A0E0B1E001C01D92A23003
:10008000B207E1F70E9448000C9437010C9400007D
:10009000789487E690E00E945A00809100018823BE
:1000A000E1F360E573EC80E090E00E946C00109258
:1000B0000001F3CF9093C5008093C40088E980933A
:1000C000C1008EE08093C20008959091C00095FF1A
:1000D000FCCF8093C6000895CF92DF92EF92FF92FB
:1000E0000F931F93CF93DF93CDB7DEB728970FB64B
:1000F000F894DEBF0FBECDBFFE01319620E030E0A8
:100100008F016B017C01022E04C0F594E794D79413
:10011000C7940A94D2F74C2D4F7041932C5F3F4FF8
:100120002032310571F7F801CE01099620812A307D
:1001300010F4205D03C0203110F4295C2083319637
:10014000E817F90799F77F01F70182917F010E9473
:100150006500E016F106C1F78AE028960FB6F8941C
:10016000DEBF0FBECDBFDF91CF911F910F91FF90EA
:10017000EF90DF90CF900C9465000F931F93CF9377
:10018000DF93482F4F709C0184E0359527958A9521
:10019000E1F72F70392F3F7092959F704A3010F41D
:1001A00000E301C007E3040F2A3010F410E301C09C
:1001B00017E3120F3A3010F4D0E301C0D7E3D30FA6
:1001C0009A3010F4C0E301C0C7E3C90F80E30E9476
:1001D000650088E70E946500802F0E946500812FDE
:1001E0000E9465008D2F0E9465008C2F0E94650083
:1001F0008AE0DF91CF911F910F910C946500CF930E
:10020000DF93982F9F70C82FC295CF709A3010F44B
:10021000D0E301C0D7E3D90FCA3010F4C05D03C0EA
:10022000C03108F4C95C80E30E94650088E70E9441
:1002300065008C2F0E9465008D2F0E9465008AE06A
:10024000DF91CF910C9465001F920F920FB60F9221
:1002500011248F9381E0809300018091C6008093E8
:1002600001018F910F900FBE0F901F901895F89479
:02027000FFCFBE
:00000001FF
