:100000000C9434000C9446000C9446000C9446006A
:100010000C9446000C9446000C9446000C94460048
:100020000C9446000C9446000C9446000C94460038
:100030000C9446000C9446000C9446000C94460028
:100040000C9446000C9446000C944F010C9446000E
:100050000C9446000C9446000C9446000C94460008
:100060000C9446000C94460011241FBECFEFD8E03C
:10007000DEBFCDBF21E0A0E0B1E001C01D92A23003
:10008000B207E1F70E9464000C9462010C94000036
:100090008CE284B981E58CBD08958EBD0DB407FE58
:1000A000FDCF08952A9A28EA2EBD0DB407FEFDCF94
:1000B0009C01295F3F4F4EB5FC014193CF01E217F0
:1000C000F307C9F72A980895CF93DF9300D000D0A3
:1000D00000D0CDB7DEB7789487E690E00E94850027
:1000E0000E944800CE0101960E9452008A8190E051
:1000F000982F88272981822B0E94E8008AE00E949D
:1001000090008DE00E949000EDCF9093C500809309
:10011000C40088E98093C1008EE08093C2000895F6
:100120009091C00095FFFCCF8093C6000895CF92B8
:10013000DF92EF92FF920F931F93CF93DF93CDB790
:10014000DEB728970FB6F894DEBF0FBECDBFFE0115
:10015000319620E030E08F016B017C01022E04C05B
:10016000F594E794D794C7940A94D2F74C2D4F7026
:1001700041932C5F3F4F2032310571F7F801CE01DA
:10018000099620812A3010F4205D03C0203110F43C
:10019000295C20833196E817F90799F77F01F70169
:1001A00082917F010E949000E016F106C1F78AE07B
:1001B00028960FB6F894DEBF0FBECDBFDF91CF916A
:1001C0001F910F91FF90EF90DF90CF900C949000D3
:1001D0000F931F93CF93DF93482F4F709C0184E0C0
:1001E000359527958A95E1F72F70392F3F709295B5
:1001F0009F704A3010F400E301C007E3040F2A3077
:1002000010F410E301C017E3120F3A3010F4D0E3FA
:1002100001C0D7E3D30F9A3010F4C0E301C0C7E3A5
:10022000C90F80E30E94900088E70E949000802F11
:100230000E949000812F0E9490008D2F0E949000BC
:100240008C2F0E9490008AE0DF91CF911F910F9137
:100250000C949000CF93DF93982F9F70C82FC29576
:10026000CF709A3010F4D0E301C0D7E3D90FCA3071
:1002700010F4C05D03C0C03108F4C95C80E30E9483
:10028000900088E70E9490008C2F0E9490008D2F94
:100290000E9490008AE0DF91CF910C9490001F9211
:1002A0000F920FB60F9211248F9381E0809300017B
:1002B0008091C600809301018F910F900FBE0F9027
:0802C0001F901895F894FFCF80
:00000001FF
